{
  "contractName": "FlightSuretyApp",
  "abi": [
    {
      "constant": true,
      "inputs": [],
      "name": "REGISTRATION_FEE",
      "outputs": [
        {
          "name": "",
          "type": "uint256"
        }
      ],
      "payable": false,
      "stateMutability": "view",
      "type": "function",
      "signature": "0x64b4f751"
    },
    {
      "constant": true,
      "inputs": [],
      "name": "totalAirlineFunding",
      "outputs": [
        {
          "name": "",
          "type": "uint256"
        }
      ],
      "payable": false,
      "stateMutability": "view",
      "type": "function",
      "signature": "0xc708d72c"
    },
    {
      "inputs": [
        {
          "name": "dataContract",
          "type": "address"
        }
      ],
      "payable": false,
      "stateMutability": "nonpayable",
      "type": "constructor",
      "signature": "constructor"
    },
    {
      "payable": true,
      "stateMutability": "payable",
      "type": "fallback"
    },
    {
      "anonymous": false,
      "inputs": [
        {
          "indexed": false,
          "name": "airlineName_",
          "type": "string"
        },
        {
          "indexed": false,
          "name": "airlineAddress_",
          "type": "address"
        },
        {
          "indexed": false,
          "name": "airlineCallerAddress",
          "type": "address"
        }
      ],
      "name": "RegisterArlineEvent",
      "type": "event",
      "signature": "0x677c4321ffc7f581cd968caa6e93b916b0b2c7114b2f42c738e86a983e34b5d5"
    },
    {
      "anonymous": false,
      "inputs": [
        {
          "indexed": false,
          "name": "airlineVoterAddress_",
          "type": "address"
        },
        {
          "indexed": false,
          "name": "newAirlinedAdded",
          "type": "bool"
        }
      ],
      "name": "VoteForArlineEvent",
      "type": "event",
      "signature": "0xc05b2b6d6e6d62fbac066912341d10142a92799198ddccd559764a062707af6d"
    },
    {
      "anonymous": false,
      "inputs": [
        {
          "indexed": false,
          "name": "airlineAddress_",
          "type": "address"
        },
        {
          "indexed": false,
          "name": "amountFunded_",
          "type": "uint256"
        }
      ],
      "name": "AirlineFund",
      "type": "event",
      "signature": "0x2307f41432a40c15f8804bd8eebeea7fd42a7dd66544e4c54431680acd8f6c45"
    },
    {
      "anonymous": false,
      "inputs": [
        {
          "indexed": false,
          "name": "airline",
          "type": "address"
        },
        {
          "indexed": false,
          "name": "flight",
          "type": "string"
        },
        {
          "indexed": false,
          "name": "timestamp",
          "type": "uint256"
        },
        {
          "indexed": false,
          "name": "status",
          "type": "uint8"
        }
      ],
      "name": "FlightStatusInfo",
      "type": "event",
      "signature": "0xe23f5229de535c091e3b7bec2665f5d698192d3b31393066e8987b7a05076b6c"
    },
    {
      "anonymous": false,
      "inputs": [
        {
          "indexed": false,
          "name": "airline",
          "type": "address"
        },
        {
          "indexed": false,
          "name": "flight",
          "type": "string"
        },
        {
          "indexed": false,
          "name": "timestamp",
          "type": "uint256"
        },
        {
          "indexed": false,
          "name": "status",
          "type": "uint8"
        }
      ],
      "name": "OracleReport",
      "type": "event",
      "signature": "0x43c853095c2752648493c88b4baac4d580d2594ffb00c6f1d4242d844514f783"
    },
    {
      "anonymous": false,
      "inputs": [
        {
          "indexed": false,
          "name": "index",
          "type": "uint8"
        },
        {
          "indexed": false,
          "name": "airline",
          "type": "address"
        },
        {
          "indexed": false,
          "name": "flight",
          "type": "string"
        },
        {
          "indexed": false,
          "name": "timestamp",
          "type": "uint256"
        }
      ],
      "name": "OracleRequest",
      "type": "event",
      "signature": "0x3ed01f2c3fc24c6b329d931e35b03e390d23497d22b3f90e15b600343e93df11"
    },
    {
      "constant": false,
      "inputs": [],
      "name": "isOperational",
      "outputs": [
        {
          "name": "",
          "type": "bool"
        }
      ],
      "payable": false,
      "stateMutability": "nonpayable",
      "type": "function",
      "signature": "0xcd905dff"
    },
    {
      "constant": false,
      "inputs": [
        {
          "name": "operational_",
          "type": "bool"
        }
      ],
      "name": "changeOperational",
      "outputs": [
        {
          "name": "",
          "type": "bool"
        }
      ],
      "payable": false,
      "stateMutability": "nonpayable",
      "type": "function",
      "signature": "0x4be334f1"
    },
    {
      "constant": false,
      "inputs": [
        {
          "name": "airlineName_",
          "type": "string"
        },
        {
          "name": "airlineAddress_",
          "type": "address"
        },
        {
          "name": "airlineCallerAddress",
          "type": "address"
        }
      ],
      "name": "registerAirline",
      "outputs": [
        {
          "name": "",
          "type": "bool"
        }
      ],
      "payable": false,
      "stateMutability": "nonpayable",
      "type": "function",
      "signature": "0x8400729e"
    },
    {
      "constant": false,
      "inputs": [
        {
          "name": "newAirlineName_",
          "type": "string"
        },
        {
          "name": "newAirlineAddress_",
          "type": "address"
        },
        {
          "name": "airlineVoterAddress_",
          "type": "address"
        }
      ],
      "name": "registerAirlineByVoting",
      "outputs": [
        {
          "name": "",
          "type": "bool"
        }
      ],
      "payable": false,
      "stateMutability": "nonpayable",
      "type": "function",
      "signature": "0x179bc3a9"
    },
    {
      "constant": true,
      "inputs": [],
      "name": "getAirlineAddresses",
      "outputs": [
        {
          "name": "",
          "type": "address[]"
        }
      ],
      "payable": false,
      "stateMutability": "view",
      "type": "function",
      "signature": "0x0bcaf84e"
    },
    {
      "constant": false,
      "inputs": [
        {
          "name": "airlineAddress_",
          "type": "address"
        }
      ],
      "name": "getAirlineData",
      "outputs": [
        {
          "name": "isRegistered",
          "type": "bool"
        },
        {
          "name": "count",
          "type": "uint256"
        },
        {
          "name": "updatedTimestamp",
          "type": "uint256"
        },
        {
          "name": "airlineAddress",
          "type": "address"
        },
        {
          "name": "airlineName",
          "type": "string"
        },
        {
          "name": "hasVoted",
          "type": "bool"
        },
        {
          "name": "countAirlines_",
          "type": "uint256"
        },
        {
          "name": "fund",
          "type": "uint256"
        }
      ],
      "payable": false,
      "stateMutability": "nonpayable",
      "type": "function",
      "signature": "0xbbb5716a"
    },
    {
      "constant": false,
      "inputs": [
        {
          "name": "airlineAddress",
          "type": "address"
        },
        {
          "name": "flightNumber",
          "type": "string"
        },
        {
          "name": "statusCode",
          "type": "uint8"
        },
        {
          "name": "updatedTimestamp",
          "type": "uint256"
        }
      ],
      "name": "registerFlight",
      "outputs": [],
      "payable": false,
      "stateMutability": "nonpayable",
      "type": "function",
      "signature": "0x089f4e08"
    },
    {
      "constant": false,
      "inputs": [
        {
          "name": "statusCode",
          "type": "uint8"
        },
        {
          "name": "flightNumber",
          "type": "string"
        }
      ],
      "name": "updateStatusCode",
      "outputs": [],
      "payable": false,
      "stateMutability": "nonpayable",
      "type": "function",
      "signature": "0xffbf1125"
    },
    {
      "constant": false,
      "inputs": [
        {
          "name": "airline",
          "type": "address"
        },
        {
          "name": "flight",
          "type": "string"
        },
        {
          "name": "timestamp",
          "type": "uint256"
        }
      ],
      "name": "fetchFlightStatus",
      "outputs": [],
      "payable": false,
      "stateMutability": "nonpayable",
      "type": "function",
      "signature": "0xf83f11c0"
    },
    {
      "constant": false,
      "inputs": [],
      "name": "registerOracle",
      "outputs": [],
      "payable": true,
      "stateMutability": "payable",
      "type": "function",
      "signature": "0x339d2590"
    },
    {
      "constant": true,
      "inputs": [],
      "name": "getMyIndexes",
      "outputs": [
        {
          "name": "",
          "type": "uint8[3]"
        }
      ],
      "payable": false,
      "stateMutability": "view",
      "type": "function",
      "signature": "0x5f1cc0e6"
    },
    {
      "constant": false,
      "inputs": [
        {
          "name": "index",
          "type": "uint8"
        },
        {
          "name": "airline",
          "type": "address"
        },
        {
          "name": "flight",
          "type": "string"
        },
        {
          "name": "timestamp",
          "type": "uint256"
        },
        {
          "name": "statusCode",
          "type": "uint8"
        }
      ],
      "name": "submitOracleResponse",
      "outputs": [],
      "payable": false,
      "stateMutability": "nonpayable",
      "type": "function",
      "signature": "0xc10f2700"
    },
    {
      "constant": false,
      "inputs": [],
      "name": "fund",
      "outputs": [],
      "payable": true,
      "stateMutability": "payable",
      "type": "function",
      "signature": "0xb60d4288"
    },
    {
      "constant": false,
      "inputs": [
        {
          "name": "insuree",
          "type": "address"
        },
        {
          "name": "flightNumber",
          "type": "string"
        },
        {
          "name": "costInsurance",
          "type": "uint256"
        }
      ],
      "name": "buy",
      "outputs": [],
      "payable": true,
      "stateMutability": "payable",
      "type": "function",
      "signature": "0xb1c46d22"
    },
    {
      "constant": false,
      "inputs": [
        {
          "name": "insuree",
          "type": "address"
        }
      ],
      "name": "pay",
      "outputs": [],
      "payable": false,
      "stateMutability": "nonpayable",
      "type": "function",
      "signature": "0x0c11dedd"
    }
  ],
  "bytecode": "0x60806040526001600060146101000a81548160ff02191690831515021790555060006001556000600560006101000a81548160ff021916908360ff16021790555034801561004c57600080fd5b50604051602080612ee883398101806040528101908080519060200190929190505050336000806101000a81548173ffffffffffffffffffffffffffffffffffffffff021916908373ffffffffffffffffffffffffffffffffffffffff16021790555080600260006101000a81548173ffffffffffffffffffffffffffffffffffffffff021916908373ffffffffffffffffffffffffffffffffffffffff16021790555050612de8806101006000396000f3006080604052600436106100f1576000357c0100000000000000000000000000000000000000000000000000000000900463ffffffff168063089f4e08146100fb5780630bcaf84e1461016d5780630c11dedd146101d9578063179bc3a91461021c578063339d2590146102dd5780634be334f1146102e75780635f1cc0e61461032e57806364b4f751146103815780638400729e146103ac578063b1c46d221461046d578063b60d4288146104c5578063bbb5716a146104cf578063c10f2700146105f0578063c708d72c1461066f578063cd905dff1461069a578063f83f11c0146106c9578063ffbf11251461072e575b6100f96107a4565b005b34801561010757600080fd5b5061016b600480360381019080803573ffffffffffffffffffffffffffffffffffffffff169060200190929190803590602001908201803590602001919091929391929390803560ff16906020019092919080359060200190929190505050610a5b565b005b34801561017957600080fd5b50610182610c81565b6040518080602001828103825283818151815260200191508051906020019060200280838360005b838110156101c55780820151818401526020810190506101aa565b505050509050019250505060405180910390f35b3480156101e557600080fd5b5061021a600480360381019080803573ffffffffffffffffffffffffffffffffffffffff169060200190929190505050610d9f565b005b34801561022857600080fd5b506102c3600480360381019080803590602001908201803590602001908080601f0160208091040260200160405190810160405280939291908181526020018383808284378201915050505050509192919290803573ffffffffffffffffffffffffffffffffffffffff169060200190929190803573ffffffffffffffffffffffffffffffffffffffff1690602001909291905050506110c9565b604051808215151515815260200191505060405180910390f35b6102e56113ed565b005b3480156102f357600080fd5b50610314600480360381019080803515159060200190929190505050611515565b604051808215151515815260200191505060405180910390f35b34801561033a57600080fd5b5061034361160c565b6040518082600360200280838360005b8381101561036e578082015181840152602081019050610353565b5050505090500191505060405180910390f35b34801561038d57600080fd5b50610396611781565b6040518082815260200191505060405180910390f35b3480156103b857600080fd5b50610453600480360381019080803590602001908201803590602001908080601f0160208091040260200160405190810160405280939291908181526020018383808284378201915050505050509192919290803573ffffffffffffffffffffffffffffffffffffffff169060200190929190803573ffffffffffffffffffffffffffffffffffffffff16906020019092919050505061178d565b604051808215151515815260200191505060405180910390f35b6104c3600480360381019080803573ffffffffffffffffffffffffffffffffffffffff16906020019092919080359060200190820180359060200191909192939192939080359060200190929190505050611ad1565b005b6104cd6107a4565b005b3480156104db57600080fd5b50610510600480360381019080803573ffffffffffffffffffffffffffffffffffffffff169060200190929190505050611d86565b60405180891515151581526020018881526020018781526020018673ffffffffffffffffffffffffffffffffffffffff1673ffffffffffffffffffffffffffffffffffffffff1681526020018060200185151515158152602001848152602001838152602001828103825286818151815260200191508051906020019080838360005b838110156105ae578082015181840152602081019050610593565b50505050905090810190601f1680156105db5780820380516001836020036101000a031916815260200191505b50995050505050505050505060405180910390f35b3480156105fc57600080fd5b5061066d600480360381019080803560ff169060200190929190803573ffffffffffffffffffffffffffffffffffffffff16906020019092919080359060200190820180359060200191909192939192939080359060200190929190803560ff169060200190929190505050611f46565b005b34801561067b57600080fd5b50610684612521565b6040518082815260200191505060405180910390f35b3480156106a657600080fd5b506106af612527565b604051808215151515815260200191505060405180910390f35b3480156106d557600080fd5b5061072c600480360381019080803573ffffffffffffffffffffffffffffffffffffffff1690602001909291908035906020019082018035906020019190919293919293908035906020019092919050505061253d565b005b34801561073a57600080fd5b506107a2600480360381019080803560ff169060200190929190803590602001908201803590602001908080601f01602080910402602001604051908101604052809392919081815260200183838082843782019150505050505091929192905050506127a7565b005b6000678ac7230489e800003373ffffffffffffffffffffffffffffffffffffffff163110151515610863576040517f08c379a00000000000000000000000000000000000000000000000000000000081526004018080602001828103825260318152602001807f4163636f756e742063616c6c657220646f6573206e6f74206861766520656e6f81526020017f7567682065746865722062616c616e636500000000000000000000000000000081525060400191505060405180910390fd5b678ac7230489e80000341415156108e2576040517f08c379a00000000000000000000000000000000000000000000000000000000081526004018080602001828103825260208152602001807f45616368206169726c696e65206d7573742066756e642031302065746865722e81525060200191505060405180910390fd5b600260009054906101000a900473ffffffffffffffffffffffffffffffffffffffff1673ffffffffffffffffffffffffffffffffffffffff1663253670ae336040518263ffffffff167c0100000000000000000000000000000000000000000000000000000000028152600401808273ffffffffffffffffffffffffffffffffffffffff1673ffffffffffffffffffffffffffffffffffffffff168152602001915050602060405180830381600087803b15801561099f57600080fd5b505af11580156109b3573d6000803e3d6000fd5b505050506040513d60208110156109c957600080fd5b81019080805190602001909291905050509050600a6001600082825401925050819055507f2307f41432a40c15f8804bd8eebeea7fd42a7dd66544e4c54431680acd8f6c453382604051808373ffffffffffffffffffffffffffffffffffffffff1673ffffffffffffffffffffffffffffffffffffffff1681526020018281526020019250505060405180910390a150565b6003848460405180838380828437820191505092505050908152602001604051809103902060010160009054906101000a900460ff16151515610b2c576040517f08c379a00000000000000000000000000000000000000000000000000000000081526004018080602001828103825260248152602001807f466c69676874206e756d62657220697320616c7265616479207265676973746581526020017f7265642e0000000000000000000000000000000000000000000000000000000081525060400191505060405180910390fd5b60a06040519081016040528085858080601f0160208091040260200160405190810160405280939291908181526020018383808284378201915050505050508152602001600115158152602001600160ff1681526020018281526020018673ffffffffffffffffffffffffffffffffffffffff16815250600385856040518083838082843782019150509250505090815260200160405180910390206000820151816000019080519060200190610be4929190612c2a565b5060208201518160010160006101000a81548160ff02191690831515021790555060408201518160010160016101000a81548160ff021916908360ff1602179055506060820151816002015560808201518160030160006101000a81548173ffffffffffffffffffffffffffffffffffffffff021916908373ffffffffffffffffffffffffffffffffffffffff1602179055509050505050505050565b6060600260009054906101000a900473ffffffffffffffffffffffffffffffffffffffff1673ffffffffffffffffffffffffffffffffffffffff16630bcaf84e6040518163ffffffff167c0100000000000000000000000000000000000000000000000000000000028152600401600060405180830381600087803b158015610d0957600080fd5b505af1158015610d1d573d6000803e3d6000fd5b505050506040513d6000823e3d601f19601f820116820180604052506020811015610d4757600080fd5b810190808051640100000000811115610d5f57600080fd5b82810190506020810184811115610d7557600080fd5b8151856020820283011164010000000082111715610d9257600080fd5b5050929190505050905090565b6000600460008373ffffffffffffffffffffffffffffffffffffffff1673ffffffffffffffffffffffffffffffffffffffff16815260200190815260200160002060030160009054906101000a900460ff161515610e8b576040517f08c379a00000000000000000000000000000000000000000000000000000000081526004018080602001828103825260298152602001807f496e7375726565206d616b696e67207468652063616c6c206973206e6f74207281526020017f656769737465726564000000000000000000000000000000000000000000000081525060400191505060405180910390fd5b601460ff166003600460008573ffffffffffffffffffffffffffffffffffffffff1673ffffffffffffffffffffffffffffffffffffffff1681526020019081526020016000206004016040518082805460018160011615610100020316600290048015610f2f5780601f10610f0d576101008083540402835291820191610f2f565b820191906000526020600020905b815481529060010190602001808311610f1b575b5050915050908152602001604051809103902060010160019054906101000a900460ff1660ff16141515610ff1576040517f08c379a00000000000000000000000000000000000000000000000000000000081526004018080602001828103825260338152602001807f546865206169726c696e6520646964206e6f7420726566756e6420626563617581526020017f736520697420776173206e6f74206c6174652e0000000000000000000000000081525060400191505060405180910390fd5b600460008373ffffffffffffffffffffffffffffffffffffffff1673ffffffffffffffffffffffffffffffffffffffff1681526020019081526020016000206002015490506000600460008473ffffffffffffffffffffffffffffffffffffffff1673ffffffffffffffffffffffffffffffffffffffff168152602001908152602001600020600201819055508173ffffffffffffffffffffffffffffffffffffffff166108fc829081150290604051600060405180830381858888f193505050501580156110c4573d6000803e3d6000fd5b505050565b600080600260009054906101000a900473ffffffffffffffffffffffffffffffffffffffff1673ffffffffffffffffffffffffffffffffffffffff1663179bc3a98686866040518463ffffffff167c010000000000000000000000000000000000000000000000000000000002815260040180806020018473ffffffffffffffffffffffffffffffffffffffff1673ffffffffffffffffffffffffffffffffffffffff1681526020018373ffffffffffffffffffffffffffffffffffffffff1673ffffffffffffffffffffffffffffffffffffffff168152602001828103825285818151815260200191508051906020019080838360005b838110156111dc5780820151818401526020810190506111c1565b50505050905090810190601f1680156112095780820380516001836020036101000a031916815260200191505b50945050505050602060405180830381600087803b15801561122a57600080fd5b505af115801561123e573d6000803e3d6000fd5b505050506040513d602081101561125457600080fd5b810190808051906020019092919050505090508015611372577f677c4321ffc7f581cd968caa6e93b916b0b2c7114b2f42c738e86a983e34b5d585858560405180806020018473ffffffffffffffffffffffffffffffffffffffff1673ffffffffffffffffffffffffffffffffffffffff1681526020018373ffffffffffffffffffffffffffffffffffffffff1673ffffffffffffffffffffffffffffffffffffffff168152602001828103825285818151815260200191508051906020019080838360005b8381101561133557808201518184015260208101905061131a565b50505050905090810190601f1680156113625780820380516001836020036101000a031916815260200191505b5094505050505060405180910390a15b7fc05b2b6d6e6d62fbac066912341d10142a92799198ddccd559764a062707af6d8382604051808373ffffffffffffffffffffffffffffffffffffffff1673ffffffffffffffffffffffffffffffffffffffff168152602001821515151581526020019250505060405180910390a160019150509392505050565b6113f5612caa565b670de0b6b3a76400003410151515611475576040517f08c379a000000000000000000000000000000000000000000000000000000000815260040180806020018281038252601c8152602001807f526567697374726174696f6e206665652069732072657175697265640000000081525060200191505060405180910390fd5b61147e33612922565b9050604080519081016040528060011515815260200182815250600660003373ffffffffffffffffffffffffffffffffffffffff1673ffffffffffffffffffffffffffffffffffffffff16815260200190815260200160002060008201518160000160006101000a81548160ff02191690831515021790555060208201518160010190600361150e929190612ccd565b5090505050565b60008060009054906101000a900473ffffffffffffffffffffffffffffffffffffffff1673ffffffffffffffffffffffffffffffffffffffff163373ffffffffffffffffffffffffffffffffffffffff161415156115db576040517f08c379a000000000000000000000000000000000000000000000000000000000815260040180806020018281038252601c8152602001807f43616c6c6572206973206e6f7420636f6e7472616374206f776e65720000000081525060200191505060405180910390fd5b81600060146101000a81548160ff021916908315150217905550600060149054906101000a900460ff169050919050565b611614612caa565b600660003373ffffffffffffffffffffffffffffffffffffffff1673ffffffffffffffffffffffffffffffffffffffff16815260200190815260200160002060000160009054906101000a900460ff1615156116d8576040517f08c379a000000000000000000000000000000000000000000000000000000000815260040180806020018281038252601b8152602001807f4e6f74207265676973746572656420617320616e206f7261636c65000000000081525060200191505060405180910390fd5b600660003373ffffffffffffffffffffffffffffffffffffffff1673ffffffffffffffffffffffffffffffffffffffff168152602001908152602001600020600101600380602002604051908101604052809291908260038015611777576020028201916000905b82829054906101000a900460ff1660ff16815260200190600101906020826000010492830192600103820291508084116117405790505b5050505050905090565b670de0b6b3a764000081565b6000600260009054906101000a900473ffffffffffffffffffffffffffffffffffffffff1673ffffffffffffffffffffffffffffffffffffffff16638400729e8585856040518463ffffffff167c010000000000000000000000000000000000000000000000000000000002815260040180806020018473ffffffffffffffffffffffffffffffffffffffff1673ffffffffffffffffffffffffffffffffffffffff1681526020018373ffffffffffffffffffffffffffffffffffffffff1673ffffffffffffffffffffffffffffffffffffffff168152602001828103825285818151815260200191508051906020019080838360005b8381101561189f578082015181840152602081019050611884565b50505050905090810190601f1680156118cc5780820380516001836020036101000a031916815260200191505b50945050505050602060405180830381600087803b1580156118ed57600080fd5b505af1158015611901573d6000803e3d6000fd5b505050506040513d602081101561191757600080fd5b810190808051906020019092919050505015156119c2576040517f08c379a00000000000000000000000000000000000000000000000000000000081526004018080602001828103825260288152602001807f5468657265277320616e204572726f72207265676973746572696e6720616e2081526020017f6169726c696e652e00000000000000000000000000000000000000000000000081525060400191505060405180910390fd5b7f677c4321ffc7f581cd968caa6e93b916b0b2c7114b2f42c738e86a983e34b5d584848460405180806020018473ffffffffffffffffffffffffffffffffffffffff1673ffffffffffffffffffffffffffffffffffffffff1681526020018373ffffffffffffffffffffffffffffffffffffffff1673ffffffffffffffffffffffffffffffffffffffff168152602001828103825285818151815260200191508051906020019080838360005b83811015611a8a578082015181840152602081019050611a6f565b50505050905090810190601f168015611ab75780820380516001836020036101000a031916815260200191505b5094505050505060405180910390a1600190509392505050565b803373ffffffffffffffffffffffffffffffffffffffff163110151515611b86576040517f08c379a00000000000000000000000000000000000000000000000000000000081526004018080602001828103825260388152602001807f43616c6c657220646f6573206e6f74206861766520656e6f7567682066756e6481526020017f7320746f20707572636861736520696e737572616e63652e000000000000000081525060400191505060405180910390fd5b803410151515611c24576040517f08c379a00000000000000000000000000000000000000000000000000000000081526004018080602001828103825260308152602001807f43616c6c65722773206465706f736974206973206e6f74206d61746368696e6781526020017f20696e737572616e636520636f73742e0000000000000000000000000000000081525060400191505060405180910390fd5b60a0604051908101604052808573ffffffffffffffffffffffffffffffffffffffff168152602001828152602001600a600f8402811515611c6157fe5b04815260200160011515815260200184848080601f016020809104026020016040519081016040528093929190818152602001838380828437820191505050505050815250600460008673ffffffffffffffffffffffffffffffffffffffff1673ffffffffffffffffffffffffffffffffffffffff16815260200190815260200160002060008201518160000160006101000a81548173ffffffffffffffffffffffffffffffffffffffff021916908373ffffffffffffffffffffffffffffffffffffffff160217905550602082015181600101556040820151816002015560608201518160030160006101000a81548160ff0219169083151502179055506080820151816004019080519060200190611d7c929190612c2a565b5090505050505050565b60008060008060606000806000600260009054906101000a900473ffffffffffffffffffffffffffffffffffffffff1673ffffffffffffffffffffffffffffffffffffffff1663bbb5716a8a6040518263ffffffff167c0100000000000000000000000000000000000000000000000000000000028152600401808273ffffffffffffffffffffffffffffffffffffffff1673ffffffffffffffffffffffffffffffffffffffff168152602001915050600060405180830381600087803b158015611e5057600080fd5b505af1158015611e64573d6000803e3d6000fd5b505050506040513d6000823e3d601f19601f82011682018060405250610100811015611e8f57600080fd5b81019080805190602001909291908051906020019092919080519060200190929190805190602001909291908051640100000000811115611ecf57600080fd5b82810190506020810184811115611ee557600080fd5b8151856001820283011164010000000082111715611f0257600080fd5b505092919060200180519060200190929190805190602001909291908051906020019092919050505097509750975097509750975097509750919395975091939597565b60008660ff16600660003373ffffffffffffffffffffffffffffffffffffffff1673ffffffffffffffffffffffffffffffffffffffff1681526020019081526020016000206001016000600381101515611f9c57fe5b602091828204019190069054906101000a900460ff1660ff16148061202b57508660ff16600660003373ffffffffffffffffffffffffffffffffffffffff1673ffffffffffffffffffffffffffffffffffffffff168152602001908152602001600020600101600160038110151561201057fe5b602091828204019190069054906101000a900460ff1660ff16145b806120a057508660ff16600660003373ffffffffffffffffffffffffffffffffffffffff1673ffffffffffffffffffffffffffffffffffffffff168152602001908152602001600020600101600260038110151561208557fe5b602091828204019190069054906101000a900460ff1660ff16145b151561213a576040517f08c379a00000000000000000000000000000000000000000000000000000000081526004018080602001828103825260238152602001807f496e64657820646f6573206e6f74206d61746368206f7261636c65207265717581526020017f657374000000000000000000000000000000000000000000000000000000000081525060400191505060405180910390fd5b8686868686604051602001808660ff1660ff167f01000000000000000000000000000000000000000000000000000000000000000281526001018573ffffffffffffffffffffffffffffffffffffffff1673ffffffffffffffffffffffffffffffffffffffff166c010000000000000000000000000281526014018484808284378201915050828152602001955050505050506040516020818303038152906040526040518082805190602001908083835b60208310151561221157805182526020820191506020810190506020830392506121ec565b6001836020036101000a0380198251168184511680821785525050505050509050019150506040518091039020905060076000826000191660001916815260200190815260200160002060000160149054906101000a900460ff161515612306576040517f08c379a000000000000000000000000000000000000000000000000000000000815260040180806020018281038252602f8152602001807f466c69676874206f722074696d657374616d7020646f206e6f74206d6174636881526020017f206f7261636c652072657175657374000000000000000000000000000000000081525060400191505060405180910390fd5b60076000826000191660001916815260200190815260200160002060010160008360ff1660ff1681526020019081526020016000203390806001815401808255809150509060018203906000526020600020016000909192909190916101000a81548173ffffffffffffffffffffffffffffffffffffffff021916908373ffffffffffffffffffffffffffffffffffffffff160217905550507f43c853095c2752648493c88b4baac4d580d2594ffb00c6f1d4242d844514f7838686868686604051808673ffffffffffffffffffffffffffffffffffffffff1673ffffffffffffffffffffffffffffffffffffffff168152602001806020018481526020018360ff1660ff16815260200182810382528686828181526020019250808284378201915050965050505050505060405180910390a1600360076000836000191660001916815260200190815260200160002060010160008460ff1660ff16815260200190815260200160002080549050101515612518577fe23f5229de535c091e3b7bec2665f5d698192d3b31393066e8987b7a05076b6c8686868686604051808673ffffffffffffffffffffffffffffffffffffffff1673ffffffffffffffffffffffffffffffffffffffff168152602001806020018481526020018360ff1660ff16815260200182810382528686828181526020019250808284378201915050965050505050505060405180910390a15b50505050505050565b60015481565b60008060149054906101000a900460ff16905090565b60008061254933612ac8565b91508186868686604051602001808660ff1660ff167f01000000000000000000000000000000000000000000000000000000000000000281526001018573ffffffffffffffffffffffffffffffffffffffff1673ffffffffffffffffffffffffffffffffffffffff166c010000000000000000000000000281526014018484808284378201915050828152602001955050505050506040516020818303038152906040526040518082805190602001908083835b60208310151561262257805182526020820191506020810190506020830392506125fd565b6001836020036101000a0380198251168184511680821785525050505050509050019150506040518091039020905060408051908101604052803373ffffffffffffffffffffffffffffffffffffffff1681526020016001151581525060076000836000191660001916815260200190815260200160002060008201518160000160006101000a81548173ffffffffffffffffffffffffffffffffffffffff021916908373ffffffffffffffffffffffffffffffffffffffff16021790555060208201518160000160146101000a81548160ff0219169083151502179055509050507f3ed01f2c3fc24c6b329d931e35b03e390d23497d22b3f90e15b600343e93df118287878787604051808660ff1660ff1681526020018573ffffffffffffffffffffffffffffffffffffffff1673ffffffffffffffffffffffffffffffffffffffff1681526020018060200183815260200182810382528585828181526020019250808284378201915050965050505050505060405180910390a1505050505050565b6003816040518082805190602001908083835b6020831015156127df57805182526020820191506020810190506020830392506127ba565b6001836020036101000a038019825116818451168082178552505050505050905001915050908152602001604051809103902060010160009054906101000a900460ff161515612897576040517f08c379a00000000000000000000000000000000000000000000000000000000081526004018080602001828103825260208152602001807f466c69676874206e756d626572206973206e6f7420726567697374657265642e81525060200191505060405180910390fd5b816003826040518082805190602001908083835b6020831015156128d057805182526020820191506020810190506020830392506128ab565b6001836020036101000a038019825116818451168082178552505050505050905001915050908152602001604051809103902060010160016101000a81548160ff021916908360ff1602179055505050565b61292a612caa565b612932612caa565b61293b83612ac8565b81600060038110151561294a57fe5b602002019060ff16908160ff168152505080600060038110151561296a57fe5b602002015181600160038110151561297e57fe5b602002019060ff16908160ff16815250505b80600060038110151561299f57fe5b602002015160ff168160016003811015156129b657fe5b602002015160ff1614156129f2576129cd83612ac8565b8160016003811015156129dc57fe5b602002019060ff16908160ff1681525050612990565b806001600381101515612a0157fe5b6020020151816002600381101515612a1557fe5b602002019060ff16908160ff16815250505b806000600381101515612a3657fe5b602002015160ff16816002600381101515612a4d57fe5b602002015160ff161480612a8c5750806001600381101515612a6b57fe5b602002015160ff16816002600381101515612a8257fe5b602002015160ff16145b15612abf57612a9a83612ac8565b816002600381101515612aa957fe5b602002019060ff16908160ff1681525050612a27565b80915050919050565b6000806000600a91508160ff166005600081819054906101000a900460ff168092919060010191906101000a81548160ff021916908360ff16021790555060ff16430340856040516020018083600019166000191681526020018273ffffffffffffffffffffffffffffffffffffffff1673ffffffffffffffffffffffffffffffffffffffff166c01000000000000000000000000028152601401925050506040516020818303038152906040526040518082805190602001908083835b602083101515612bab5780518252602082019150602081019050602083039250612b86565b6001836020036101000a038019825116818451168082178552505050505050905001915050604051809103902060019004811515612be557fe5b06905060fa600560009054906101000a900460ff1660ff161115612c20576000600560006101000a81548160ff021916908360ff1602179055505b8092505050919050565b828054600181600116156101000203166002900490600052602060002090601f016020900481019282601f10612c6b57805160ff1916838001178555612c99565b82800160010185558215612c99579182015b82811115612c98578251825591602001919060010190612c7d565b5b509050612ca69190612d67565b5090565b606060405190810160405280600390602082028038833980820191505090505090565b826003601f01602090048101928215612d565791602002820160005b83821115612d2757835183826101000a81548160ff021916908360ff1602179055509260200192600101602081600001049283019260010302612ce9565b8015612d545782816101000a81549060ff0219169055600101602081600001049283019260010302612d27565b505b509050612d639190612d8c565b5090565b612d8991905b80821115612d85576000816000905550600101612d6d565b5090565b90565b612db991905b80821115612db557600081816101000a81549060ff021916905550600101612d92565b5090565b905600a165627a7a7230582008aec4d850faf55efcccf763420674d75913135e5d5081c5c83edf6a75da9eb00029",
  "source": "pragma solidity ^0.4.25;\n\n// It's important to avoid vulnerabilities due to numeric overflow bugs\n// OpenZeppelin's SafeMath library, when used correctly, protects agains such bugs\n// More info: https://www.nccgroup.trust/us/about-us/newsroom-and-events/blog/2018/november/smart-contract-insecurity-bad-arithmetic/\n\nimport \"../node_modules/openzeppelin-solidity/contracts/math/SafeMath.sol\";\n\n/************************************************** */\n/* FlightSurety Smart Contract                      */\n/************************************************** */\ncontract FlightSuretyApp {\n    using SafeMath for uint256; // Allow SafeMath functions to be called for all uint256 types (similar to \"prototype\" in Javascript)\n\n    /********************************************************************************************/\n    /*                                       DATA VARIABLES                                     */\n    /********************************************************************************************/\n\n    // Flight status codees\n    uint8 private constant STATUS_CODE_UNKNOWN = 0;\n    uint8 private constant STATUS_CODE_ON_TIME = 10;\n    uint8 private constant STATUS_CODE_LATE_AIRLINE = 20;\n    uint8 private constant STATUS_CODE_LATE_WEATHER = 30;\n    uint8 private constant STATUS_CODE_LATE_TECHNICAL = 40;\n    uint8 private constant STATUS_CODE_LATE_OTHER = 50;\n\n    address private contractOwner; // Account used to deploy contract\n    bool private operational = true;\n    uint256 public totalAirlineFunding = 0;\n    FlightSuretyData flightSuretyData;\n\n    struct Flight {\n        string flightNumber;\n        bool isRegistered;\n        uint8 statusCode;\n        uint256 updatedTimestamp;\n        address airline;\n    }\n    mapping(string => Flight) private flights;\n\n    struct Insuree {\n        address insuree;\n        uint256 costInsurance;\n        uint256 refund;\n        bool isRegistered;\n        string flightNumber;\n    }\n    mapping(address => Insuree) private insurees;\n\n    /********************************************************************************************/\n    /*                                       FUNCTION MODIFIERS                                 */\n    /********************************************************************************************/\n\n    // Modifiers help avoid duplication of code. They are typically used to validate something\n    // before a function is allowed to be executed.\n\n    /**\n     * @dev Modifier that requires the \"operational\" boolean variable to be \"true\"\n     *      This is used on all state changing functions to pause the contract in\n     *      the event there is an issue that needs to be fixed\n     */\n    modifier requireIsOperational() {\n        // Modify to call data contract's status\n        require(operational, \"Contract is currently not operational\");\n        _; // All modifiers require an \"_\" which indicates where the function body will be added\n    }\n\n    /**\n     * @dev Modifier that requires the \"ContractOwner\" account to be the function caller\n     */\n    modifier requireContractOwner() {\n        require(msg.sender == contractOwner, \"Caller is not contract owner\");\n        _;\n    }\n    /********************************************************************************************/\n    /*                                       EVENT DEFINITIONS                                  */\n    /********************************************************************************************/\n\n    event RegisterArlineEvent(\n        string airlineName_,\n        address airlineAddress_,\n        address airlineCallerAddress\n    );\n    event VoteForArlineEvent(\n        address airlineVoterAddress_,\n        bool newAirlinedAdded\n    );\n    event AirlineFund(address airlineAddress_, uint256 amountFunded_);\n\n    /********************************************************************************************/\n    /*                                       CONSTRUCTOR                                        */\n    /********************************************************************************************/\n\n    /**\n     * @dev Contract constructor\n     *\n     */\n    constructor(address dataContract) public {\n        contractOwner = msg.sender;\n        flightSuretyData = FlightSuretyData(dataContract);\n    }\n\n    /********************************************************************************************/\n    /*                                       UTILITY FUNCTIONS                                  */\n    /********************************************************************************************/\n\n    function isOperational() public returns (bool) {\n        return operational; // Modify to call data contract's status\n    }\n\n    function changeOperational(bool operational_)\n        public\n        requireContractOwner\n        returns (bool)\n    {\n        operational = operational_;\n        return operational;\n    }\n\n    /********************************************************************************************/\n    /*                                     SMART CONTRACT FUNCTIONS                             */\n    /********************************************************************************************/\n\n    function registerAirline(\n        string airlineName_,\n        address airlineAddress_,\n        address airlineCallerAddress\n    ) public returns (bool) {\n        require(\n            flightSuretyData.registerAirline(\n                airlineName_,\n                airlineAddress_,\n                airlineCallerAddress\n            ),\n            \"There's an Error registering an airline.\"\n        );\n        emit RegisterArlineEvent(\n            airlineName_,\n            airlineAddress_,\n            airlineCallerAddress\n        );\n        return true;\n    }\n\n    function registerAirlineByVoting(\n        string newAirlineName_,\n        address newAirlineAddress_,\n        address airlineVoterAddress_\n    ) public returns (bool) {\n        bool newAirlinedAdded = flightSuretyData.registerAirlineByVoting(\n            newAirlineName_,\n            newAirlineAddress_,\n            airlineVoterAddress_\n        );\n        if (newAirlinedAdded) {\n            emit RegisterArlineEvent(\n                newAirlineName_,\n                newAirlineAddress_,\n                airlineVoterAddress_\n            );\n        }\n        emit VoteForArlineEvent(airlineVoterAddress_, newAirlinedAdded);\n        return true;\n    }\n\n    function getAirlineAddresses() public view returns (address[]) {\n        return flightSuretyData.getAirlineAddresses();\n    }\n\n    function getAirlineData(address airlineAddress_)\n        external\n        returns (\n            bool isRegistered,\n            uint256 count,\n            uint256 updatedTimestamp,\n            address airlineAddress,\n            string airlineName,\n            bool hasVoted,\n            uint256 countAirlines_,\n            uint256 fund\n        )\n    {\n        return flightSuretyData.getAirlineData(airlineAddress_);\n    }\n\n    /**\n     * @dev Register a future flight for insuring (front-end).\n     *\n     */\n    function registerFlight(\n        address airlineAddress,\n        string flightNumber,\n        uint8 statusCode,\n        uint256 updatedTimestamp\n    ) external {\n        require(\n            !flights[flightNumber].isRegistered,\n            \"Flight number is already registered.\"\n        );\n        flights[flightNumber] = Flight(\n            flightNumber,\n            true,\n            1,\n            updatedTimestamp,\n            airlineAddress\n        );\n    }\n\n    function updateStatusCode(uint8 statusCode, string flightNumber) public {\n        require(\n            flights[flightNumber].isRegistered,\n            \"Flight number is not registered.\"\n        );\n        flights[flightNumber].statusCode = statusCode;\n    }\n\n    // Generate a request for oracles to fetch flight information\n    function fetchFlightStatus(\n        address airline,\n        string flight,\n        uint256 timestamp\n    ) external {\n        uint8 index = getRandomIndex(msg.sender);\n\n        // Generate a unique key for storing the request\n        bytes32 key = keccak256(\n            abi.encodePacked(index, airline, flight, timestamp)\n        );\n        oracleResponses[key] = ResponseInfo({\n            requester: msg.sender,\n            isOpen: true\n        });\n\n        emit OracleRequest(index, airline, flight, timestamp);\n    }\n\n    // region ORACLE MANAGEMENT\n\n    // Incremented to add pseudo-randomness at various points\n    uint8 private nonce = 0;\n\n    // Fee to be paid when registering oracle\n    uint256 public constant REGISTRATION_FEE = 1 ether;\n\n    // Number of oracles that must respond for valid status\n    uint256 private constant MIN_RESPONSES = 3;\n\n    struct Oracle {\n        bool isRegistered;\n        uint8[3] indexes;\n    }\n\n    // Track all registered oracles\n    mapping(address => Oracle) private oracles;\n\n    // Model for responses from oracles\n    struct ResponseInfo {\n        address requester; // Account that requested status\n        bool isOpen; // If open, oracle responses are accepted\n        mapping(uint8 => address[]) responses; // Mapping key is the status code reported\n        // This lets us group responses and identify\n        // the response that majority of the oracles\n    }\n\n    // Track all oracle responses\n    // Key = hash(index, flight, timestamp)\n    mapping(bytes32 => ResponseInfo) private oracleResponses;\n\n    // Event fired each time an oracle submits a response\n    event FlightStatusInfo(\n        address airline,\n        string flight,\n        uint256 timestamp,\n        uint8 status\n    );\n\n    event OracleReport(\n        address airline,\n        string flight,\n        uint256 timestamp,\n        uint8 status\n    );\n\n    // Event fired when flight status request is submitted\n    // Oracles track this and if they have a matching index\n    // they fetch data and submit a response\n    event OracleRequest(\n        uint8 index,\n        address airline,\n        string flight,\n        uint256 timestamp\n    );\n\n    // Register an oracle with the contract\n    function registerOracle() external payable {\n        // Require registration fee\n        require(msg.value >= REGISTRATION_FEE, \"Registration fee is required\");\n\n        uint8[3] memory indexes = generateIndexes(msg.sender);\n\n        oracles[msg.sender] = Oracle({isRegistered: true, indexes: indexes});\n    }\n\n    function getMyIndexes() external view returns (uint8[3]) {\n        require(\n            oracles[msg.sender].isRegistered,\n            \"Not registered as an oracle\"\n        );\n\n        return oracles[msg.sender].indexes;\n    }\n\n    // Called by oracle when a response is available to an outstanding request\n    // For the response to be accepted, there must be a pending request that is open\n    // and matches one of the three Indexes randomly assigned to the oracle at the\n    // time of registration (i.e. uninvited oracles are not welcome)\n    function submitOracleResponse(\n        uint8 index,\n        address airline,\n        string flight,\n        uint256 timestamp,\n        uint8 statusCode\n    ) external {\n        require(\n            (oracles[msg.sender].indexes[0] == index) ||\n                (oracles[msg.sender].indexes[1] == index) ||\n                (oracles[msg.sender].indexes[2] == index),\n            \"Index does not match oracle request\"\n        );\n\n        bytes32 key = keccak256(\n            abi.encodePacked(index, airline, flight, timestamp)\n        );\n        require(\n            oracleResponses[key].isOpen,\n            \"Flight or timestamp do not match oracle request\"\n        );\n\n        oracleResponses[key].responses[statusCode].push(msg.sender);\n\n        // Information isn't considered verified until at least MIN_RESPONSES\n        // oracles respond with the *** same *** information\n        emit OracleReport(airline, flight, timestamp, statusCode);\n\n        if (\n            oracleResponses[key].responses[statusCode].length >= MIN_RESPONSES\n        ) {\n            emit FlightStatusInfo(airline, flight, timestamp, statusCode);\n        }\n    }\n\n    function getFlightKey(\n        address airline,\n        string flight,\n        uint256 timestamp\n    ) internal pure returns (bytes32) {\n        return keccak256(abi.encodePacked(airline, flight, timestamp));\n    }\n\n    // Returns array of three non-duplicating integers from 0-9\n    function generateIndexes(address account) internal returns (uint8[3]) {\n        uint8[3] memory indexes;\n        indexes[0] = getRandomIndex(account);\n\n        indexes[1] = indexes[0];\n        while (indexes[1] == indexes[0]) {\n            indexes[1] = getRandomIndex(account);\n        }\n\n        indexes[2] = indexes[1];\n        while ((indexes[2] == indexes[0]) || (indexes[2] == indexes[1])) {\n            indexes[2] = getRandomIndex(account);\n        }\n\n        return indexes;\n    }\n\n    // Returns array of three non-duplicating integers from 0-9\n    function getRandomIndex(address account) internal returns (uint8) {\n        uint8 maxValue = 10;\n\n        // Pseudo random number...the incrementing nonce adds variation\n        uint8 random = uint8(\n            uint256(\n                keccak256(\n                    abi.encodePacked(blockhash(block.number - nonce++), account)\n                )\n            ) % maxValue\n        );\n\n        if (nonce > 250) {\n            nonce = 0; // Can only fetch blockhashes for last 256 blocks so we adapt\n        }\n\n        return random;\n    }\n\n    // endregion\n\n    /**\n     * @dev Initial funding for the insurance. Unless there are too many delayed flights\n     *      resulting in insurance payouts, the contract should be self-sustaining\n     *\n     */\n    function fund() public payable {\n        require(\n            msg.sender.balance >= 10 ether,\n            \"Account caller does not have enough ether balance\"\n        );\n        require(msg.value == 10 ether, \"Each airline must fund 10 ether.\");\n        uint256 amountFunded_ = flightSuretyData.registerFundAirline(\n            msg.sender\n        );\n        totalAirlineFunding += 10;\n        emit AirlineFund(msg.sender, amountFunded_);\n    }\n\n    /**\n     * @dev Buy insurance for a flight by insuree\n     *\n     */\n    function buy(\n        address insuree,\n        string flightNumber,\n        uint256 costInsurance\n    ) external payable {\n        require(\n            msg.sender.balance >= costInsurance,\n            \"Caller does not have enough funds to purchase insurance.\"\n        );\n        require(\n            msg.value >= costInsurance,\n            \"Caller's deposit is not matching insurance cost.\"\n        );\n        insurees[insuree] = Insuree(\n            insuree,\n            costInsurance,\n            (costInsurance * 15) / 10,\n            true,\n            flightNumber\n        );\n    }\n\n    /**\n     *  @dev Transfers eligible payout funds to insuree.\n     *  Trigger by Insuree.\n     *\n     */\n    function pay(address insuree) external {\n        require(\n            insurees[insuree].isRegistered,\n            \"Insuree making the call is not registered\"\n        );\n\n        require(\n            flights[insurees[insuree].flightNumber].statusCode ==\n                STATUS_CODE_LATE_AIRLINE,\n            \"The airline did not refund because it was not late.\"\n        );\n\n        uint256 amountToRefund = insurees[insuree].refund;\n        insurees[insuree].refund = 0;\n        insuree.transfer(amountToRefund);\n    }\n\n    /**\n     * @dev Fallback function for funding smart contract.\n     *\n     */\n    function() external payable {\n        fund();\n    }\n}\n\ninterface FlightSuretyData {\n    function registerAirline(\n        string airlineName_,\n        address airlineAddress_,\n        address airlineCallerAddress\n    ) external returns (bool);\n\n    function registerAirlineByVoting(\n        string newAirlineName_,\n        address newAirlineAddress_,\n        address airlineVoterAddress\n    ) external returns (bool);\n\n    function getAirlineAddresses() external returns (address[]);\n\n    function getAirlineData(address airlineAddress_)\n        external\n        returns (\n            bool isRegistered,\n            uint256 count,\n            uint256 updatedTimestamp,\n            address airlineAddress,\n            string airlineName,\n            bool hasVoted,\n            uint256 countAirlines_,\n            uint256 fund\n        );\n\n    function registerFundAirline(address airlineAddress_)\n        external\n        returns (uint256);\n}\n",
  "sourcePath": "/Users/steveleec/Documents/Currently learning/Block Chain Developer - Udacity/FlightSurety/contracts/FlightSuretyApp.sol",
  "compiler": {
    "name": "solc",
    "version": "0.4.26+commit.4563c3fc.Emscripten.clang"
  },
  "schemaVersion": "3.0.1",
  "updatedAt": "2021-09-23T15:58:40.479Z",
  "devdoc": {
    "methods": {
      "buy(address,string,uint256)": {
        "details": "Buy insurance for a flight by insuree     "
      },
      "fund()": {
        "details": "Initial funding for the insurance. Unless there are too many delayed flights     resulting in insurance payouts, the contract should be self-sustaining     "
      },
      "pay(address)": {
        "details": "Transfers eligible payout funds to insuree. Trigger by Insuree.     "
      },
      "registerFlight(address,string,uint8,uint256)": {
        "details": "Register a future flight for insuring (front-end).     "
      }
    }
  },
  "userdoc": {
    "methods": {
      "isOperational()": {
        "notice": "*****************************************************************************************"
      },
      "registerAirline(string,address,address)": {
        "notice": "*****************************************************************************************"
      }
    }
  }
}