{
  "contractName": "FlightSuretyData",
  "abi": [
    {
      "inputs": [],
      "payable": false,
      "stateMutability": "nonpayable",
      "type": "constructor",
      "signature": "constructor"
    },
    {
      "constant": true,
      "inputs": [],
      "name": "isOperational",
      "outputs": [
        {
          "name": "",
          "type": "bool"
        }
      ],
      "payable": false,
      "stateMutability": "view",
      "type": "function",
      "signature": "0xcd905dff"
    },
    {
      "constant": false,
      "inputs": [
        {
          "name": "mode",
          "type": "bool"
        }
      ],
      "name": "setOperatingStatus",
      "outputs": [],
      "payable": false,
      "stateMutability": "nonpayable",
      "type": "function",
      "signature": "0x110466ed"
    },
    {
      "constant": false,
      "inputs": [
        {
          "name": "newAirlineName_",
          "type": "string"
        },
        {
          "name": "newAirlineAddress_",
          "type": "address"
        },
        {
          "name": "airlineCallerAddress_",
          "type": "address"
        }
      ],
      "name": "registerAirline",
      "outputs": [
        {
          "name": "",
          "type": "bool"
        }
      ],
      "payable": false,
      "stateMutability": "nonpayable",
      "type": "function",
      "signature": "0x8400729e"
    },
    {
      "constant": false,
      "inputs": [
        {
          "name": "newAirlineName_",
          "type": "string"
        },
        {
          "name": "newAirlineAddress_",
          "type": "address"
        },
        {
          "name": "airlineVoterAddress_",
          "type": "address"
        }
      ],
      "name": "registerAirlineByVoting",
      "outputs": [
        {
          "name": "",
          "type": "bool"
        }
      ],
      "payable": false,
      "stateMutability": "nonpayable",
      "type": "function",
      "signature": "0x179bc3a9"
    },
    {
      "constant": true,
      "inputs": [],
      "name": "getAirlineAddresses",
      "outputs": [
        {
          "name": "",
          "type": "address[]"
        }
      ],
      "payable": false,
      "stateMutability": "view",
      "type": "function",
      "signature": "0x0bcaf84e"
    },
    {
      "constant": true,
      "inputs": [
        {
          "name": "airlineAddress_",
          "type": "address"
        }
      ],
      "name": "getAirlineData",
      "outputs": [
        {
          "name": "isRegistered",
          "type": "bool"
        },
        {
          "name": "count",
          "type": "uint256"
        },
        {
          "name": "updatedTimestamp",
          "type": "uint256"
        },
        {
          "name": "airlineAddress",
          "type": "address"
        },
        {
          "name": "airlineName",
          "type": "string"
        },
        {
          "name": "hasVoted",
          "type": "bool"
        },
        {
          "name": "countAirlines_",
          "type": "uint256"
        },
        {
          "name": "fund",
          "type": "uint256"
        }
      ],
      "payable": false,
      "stateMutability": "view",
      "type": "function",
      "signature": "0xbbb5716a"
    },
    {
      "constant": false,
      "inputs": [
        {
          "name": "airlineAddress_",
          "type": "address"
        }
      ],
      "name": "registerFundAirline",
      "outputs": [
        {
          "name": "",
          "type": "uint256"
        }
      ],
      "payable": false,
      "stateMutability": "nonpayable",
      "type": "function",
      "signature": "0x253670ae"
    }
  ],
  "bytecode": "0x60806040526000604051908082528060200260200182016040528015620000355781602001602082028038833980820191505090505b50600190805190602001906200004d9291906200010c565b5060006040519080825280602002602001820160405280156200007f5781602001602082028038833980820191505090505b5060029080519060200190620000979291906200010c565b506001600360006101000a81548160ff0219169083151502179055506001600455348015620000c557600080fd5b50336000806101000a81548173ffffffffffffffffffffffffffffffffffffffff021916908373ffffffffffffffffffffffffffffffffffffffff160217905550620001e1565b82805482825590600052602060002090810192821562000188579160200282015b82811115620001875782518260006101000a81548173ffffffffffffffffffffffffffffffffffffffff021916908373ffffffffffffffffffffffffffffffffffffffff160217905550916020019190600101906200012d565b5b5090506200019791906200019b565b5090565b620001de91905b80821115620001da57600081816101000a81549073ffffffffffffffffffffffffffffffffffffffff021916905550600101620001a2565b5090565b90565b61178680620001f16000396000f300608060405260043610610083576000357c0100000000000000000000000000000000000000000000000000000000900463ffffffff1680630bcaf84e14610088578063110466ed146100f4578063179bc3a914610123578063253670ae146101b65780638400729e1461020d578063bbb5716a146102a0578063cd905dff146103c1575b600080fd5b34801561009457600080fd5b5061009d6103f0565b6040518080602001828103825283818151815260200191508051906020019060200280838360005b838110156100e05780820151818401526020810190506100c5565b505050509050019250505060405180910390f35b34801561010057600080fd5b5061012160048036038101908080351515906020019092919050505061047e565b005b34801561012f57600080fd5b5061019c600480360381019080803590602001908201803590602001919091929391929390803573ffffffffffffffffffffffffffffffffffffffff169060200190929190803573ffffffffffffffffffffffffffffffffffffffff16906020019092919050505061055f565b604051808215151515815260200191505060405180910390f35b3480156101c257600080fd5b506101f7600480360381019080803573ffffffffffffffffffffffffffffffffffffffff169060200190929190505050610d59565b6040518082815260200191505060405180910390f35b34801561021957600080fd5b50610286600480360381019080803590602001908201803590602001919091929391929390803573ffffffffffffffffffffffffffffffffffffffff169060200190929190803573ffffffffffffffffffffffffffffffffffffffff169060200190929190505050610dfd565b604051808215151515815260200191505060405180910390f35b3480156102ac57600080fd5b506102e1600480360381019080803573ffffffffffffffffffffffffffffffffffffffff169060200190929190505050611266565b60405180891515151581526020018881526020018781526020018673ffffffffffffffffffffffffffffffffffffffff1673ffffffffffffffffffffffffffffffffffffffff1681526020018060200185151515158152602001848152602001838152602001828103825286818151815260200191508051906020019080838360005b8381101561037f578082015181840152602081019050610364565b50505050905090810190601f1680156103ac5780820380516001836020036101000a031916815260200191505b50995050505050505050505060405180910390f35b3480156103cd57600080fd5b506103d661153b565b604051808215151515815260200191505060405180910390f35b6060600280548060200260200160405190810160405280929190818152602001828054801561047457602002820191906000526020600020905b8160009054906101000a900473ffffffffffffffffffffffffffffffffffffffff1673ffffffffffffffffffffffffffffffffffffffff168152602001906001019080831161042a575b5050505050905090565b6000809054906101000a900473ffffffffffffffffffffffffffffffffffffffff1673ffffffffffffffffffffffffffffffffffffffff163373ffffffffffffffffffffffffffffffffffffffff16141515610542576040517f08c379a000000000000000000000000000000000000000000000000000000000815260040180806020018281038252601c8152602001807f43616c6c6572206973206e6f7420636f6e7472616374206f776e65720000000081525060200191505060405180910390fd5b80600360006101000a81548160ff02191690831515021790555050565b6000806004805410151515610602576040517f08c379a000000000000000000000000000000000000000000000000000000000815260040180806020018281038252602f8152602001807f566f74696e67206973207265717569726520616674657220726567697374657281526020017f696e672034206169726c696e65732e000000000000000000000000000000000081525060400191505060405180910390fd5b600a600454111515156106a3576040517f08c379a000000000000000000000000000000000000000000000000000000000815260040180806020018281038252602d8152602001807f4e6f206d6f7265207468616e203130206169726c696e657320636f756c64206281526020017f6520726567697374657265642e0000000000000000000000000000000000000081525060400191505060405180910390fd5b600560008473ffffffffffffffffffffffffffffffffffffffff1673ffffffffffffffffffffffffffffffffffffffff16815260200190815260200160002060000160009054906101000a900460ff16151561078d576040517f08c379a000000000000000000000000000000000000000000000000000000000815260040180806020018281038252603f8152602001807f4f6e6c792072656769737465726564206169726c696e65732061726520616c6c81526020017f6f77656420746f20766f746520666f722061206e6577206169726c696e652e0081525060400191505060405180910390fd5b600560008473ffffffffffffffffffffffffffffffffffffffff1673ffffffffffffffffffffffffffffffffffffffff16815260200190815260200160002060050160009054906101000a900460ff16151515610878576040517f08c379a000000000000000000000000000000000000000000000000000000000815260040180806020018281038252602b8152602001807f5468652063616c6c65722068617320616c726561647920766f74656420696e2081526020017f7468697320526f756e642e00000000000000000000000000000000000000000081525060400191505060405180910390fd5b600560008573ffffffffffffffffffffffffffffffffffffffff1673ffffffffffffffffffffffffffffffffffffffff16815260200190815260200160002060000160009054906101000a900460ff16151515610963576040517f08c379a000000000000000000000000000000000000000000000000000000000815260040180806020018281038252603d8152602001807f4169726c696e6520686173206265656e207265676973746572656420616c726581526020017f6164792e20446f206e6f7420616c6c6f77206475706c6963617465642e00000081525060400191505060405180910390fd5b6001600560008573ffffffffffffffffffffffffffffffffffffffff1673ffffffffffffffffffffffffffffffffffffffff16815260200190815260200160002060050160006101000a81548160ff02191690831515021790555060018390806001815401808255809150509060018203906000526020600020016000909192909190916101000a81548173ffffffffffffffffffffffffffffffffffffffff021916908373ffffffffffffffffffffffffffffffffffffffff16021790555050610a3a600260045461155290919063ffffffff16565b600180549050101515610d4b5760e06040519081016040528060011515815260200160045481526020014281526020018573ffffffffffffffffffffffffffffffffffffffff16815260200187878080601f01602080910402602001604051908101604052809392919081815260200183838082843782019150505050505081526020016000151581526020016000815250600560008673ffffffffffffffffffffffffffffffffffffffff1673ffffffffffffffffffffffffffffffffffffffff16815260200190815260200160002060008201518160000160006101000a81548160ff021916908315150217905550602082015181600101556040820151816002015560608201518160030160006101000a81548173ffffffffffffffffffffffffffffffffffffffff021916908373ffffffffffffffffffffffffffffffffffffffff1602179055506080820151816004019080519060200190610ba2929190611568565b5060a08201518160050160006101000a81548160ff02191690831515021790555060c0820151816006015590505060028490806001815401808255809150509060018203906000526020600020016000909192909190916101000a81548173ffffffffffffffffffffffffffffffffffffffff021916908373ffffffffffffffffffffffffffffffffffffffff16021790555050600460008154809291906001019190505550600090505b600180549050811015610cfb57600060056000600184815481101515610c6f57fe5b9060005260206000200160009054906101000a900473ffffffffffffffffffffffffffffffffffffffff1673ffffffffffffffffffffffffffffffffffffffff1673ffffffffffffffffffffffffffffffffffffffff16815260200190815260200160002060050160006101000a81548160ff0219169083151502179055508080600101915050610c4d565b6000604051908082528060200260200182016040528015610d2b5781602001602082028038833980820191505090505b5060019080519060200190610d419291906115e8565b5060019150610d50565b600091505b50949350505050565b6000678ac7230489e80000600560008473ffffffffffffffffffffffffffffffffffffffff1673ffffffffffffffffffffffffffffffffffffffff16815260200190815260200160002060060160008282540192505081905550600560008373ffffffffffffffffffffffffffffffffffffffff1673ffffffffffffffffffffffffffffffffffffffff168152602001908152602001600020600601549050919050565b6000806005600454101515610ea0576040517f08c379a00000000000000000000000000000000000000000000000000000000081526004018080602001828103825260378152602001807f4f6e6c792034206169726c696e65732061726520616c6c6f77656420746f207281526020017f6567697374657220776974686f757420766f74696e672e00000000000000000081525060400191505060405180910390fd5b600560008473ffffffffffffffffffffffffffffffffffffffff1673ffffffffffffffffffffffffffffffffffffffff16815260200190815260200160002060000160009054906101000a900460ff1680610f4757506000809054906101000a900473ffffffffffffffffffffffffffffffffffffffff1673ffffffffffffffffffffffffffffffffffffffff163373ffffffffffffffffffffffffffffffffffffffff16145b1515611007576040517f08c379a00000000000000000000000000000000000000000000000000000000081526004018080602001828103825260438152602001807f4f6e6c7920436f6e7472616374204f776e6572206f722072656769737465726581526020017f64206169726c696e65732061726520616c6c6f77656420746f2072656769737481526020017f65722e000000000000000000000000000000000000000000000000000000000081525060600191505060405180910390fd5b600560008573ffffffffffffffffffffffffffffffffffffffff1673ffffffffffffffffffffffffffffffffffffffff16815260200190815260200160002060000160009054906101000a900460ff161515156110f2576040517f08c379a000000000000000000000000000000000000000000000000000000000815260040180806020018281038252603d8152602001807f4169726c696e6520686173206265656e207265676973746572656420616c726581526020017f6164792e20446f206e6f7420616c6c6f77206475706c6963617465642e00000081525060400191505060405180910390fd5b600560008573ffffffffffffffffffffffffffffffffffffffff1673ffffffffffffffffffffffffffffffffffffffff168152602001908152602001600020905060018160000160006101000a81548160ff0219169083151502179055506004548160010181905550428160020181905550838160030160006101000a81548173ffffffffffffffffffffffffffffffffffffffff021916908373ffffffffffffffffffffffffffffffffffffffff16021790555085858260040191906111ba929190611672565b5060008160050160006101000a81548160ff02191690831515021790555060008160060181905550600160046000828254019250508190555060028490806001815401808255809150509060018203906000526020600020016000909192909190916101000a81548173ffffffffffffffffffffffffffffffffffffffff021916908373ffffffffffffffffffffffffffffffffffffffff160217905550506001915050949350505050565b60008060008060606000806000600560008a73ffffffffffffffffffffffffffffffffffffffff1673ffffffffffffffffffffffffffffffffffffffff16815260200190815260200160002060000160009054906101000a900460ff169750600560008a73ffffffffffffffffffffffffffffffffffffffff1673ffffffffffffffffffffffffffffffffffffffff168152602001908152602001600020600101549650600560008a73ffffffffffffffffffffffffffffffffffffffff1673ffffffffffffffffffffffffffffffffffffffff168152602001908152602001600020600201549550600560008a73ffffffffffffffffffffffffffffffffffffffff1673ffffffffffffffffffffffffffffffffffffffff16815260200190815260200160002060030160009054906101000a900473ffffffffffffffffffffffffffffffffffffffff169450600560008a73ffffffffffffffffffffffffffffffffffffffff1673ffffffffffffffffffffffffffffffffffffffff1681526020019081526020016000206004018054600181600116156101000203166002900480601f01602080910402602001604051908101604052809291908181526020018280546001816001161561010002031660029004801561148a5780601f1061145f5761010080835404028352916020019161148a565b820191906000526020600020905b81548152906001019060200180831161146d57829003601f168201915b50505050509350600560008a73ffffffffffffffffffffffffffffffffffffffff1673ffffffffffffffffffffffffffffffffffffffff16815260200190815260200160002060050160009054906101000a900460ff1692506001600454039150600560008a73ffffffffffffffffffffffffffffffffffffffff1673ffffffffffffffffffffffffffffffffffffffff168152602001908152602001600020600601549050919395975091939597565b6000600360009054906101000a900460ff16905090565b6000818381151561155f57fe5b04905092915050565b828054600181600116156101000203166002900490600052602060002090601f016020900481019282601f106115a957805160ff19168380011785556115d7565b828001600101855582156115d7579182015b828111156115d65782518255916020019190600101906115bb565b5b5090506115e491906116f2565b5090565b828054828255906000526020600020908101928215611661579160200282015b828111156116605782518260006101000a81548173ffffffffffffffffffffffffffffffffffffffff021916908373ffffffffffffffffffffffffffffffffffffffff16021790555091602001919060010190611608565b5b50905061166e9190611717565b5090565b828054600181600116156101000203166002900490600052602060002090601f016020900481019282601f106116b357803560ff19168380011785556116e1565b828001600101855582156116e1579182015b828111156116e05782358255916020019190600101906116c5565b5b5090506116ee91906116f2565b5090565b61171491905b808211156117105760008160009055506001016116f8565b5090565b90565b61175791905b8082111561175357600081816101000a81549073ffffffffffffffffffffffffffffffffffffffff02191690555060010161171d565b5090565b905600a165627a7a7230582087f7b2af926dd61d07dbced1b93f8e0fca77333fd76311914563fd939f92ef010029",
  "source": "pragma solidity ^0.4.25;\n\nimport \"../node_modules/openzeppelin-solidity/contracts/math/SafeMath.sol\";\n\ncontract FlightSuretyData {\n    using SafeMath for uint256;\n\n    /********************************************************************************************/\n    /*                                       DATA VARIABLES                                     */\n    /********************************************************************************************/\n\n    address private contractOwner; // Account used to deploy contract\n    address[] airlineVoters = new address[](0);\n    address[] airlinesAddresses = new address[](0);\n    bool private operational = true; // Blocks all state changes throughout the contract if false\n    uint256 countAirlines = 1; // keep the count of num of airlines in 'airlines' mapping\n\n    struct Airline {\n        bool isRegistered;\n        uint256 count;\n        uint256 updatedTimestamp;\n        address airlineAddress;\n        string airlineName;\n        bool hasVoted;\n        uint256 fund;\n    }\n\n    mapping(address => Airline) airlines; // Mapping for storing airlines\n\n    /********************************************************************************************/\n    /*                                       CONSTRUCTOR                                        */\n    /********************************************************************************************/\n\n    constructor() public {\n        contractOwner = msg.sender;\n    }\n\n    /********************************************************************************************/\n    /*                                       FUNCTION MODIFIERS                                 */\n    /********************************************************************************************/\n\n    /**\n     * @dev Modifier that requires the \"operational\" boolean variable to be \"true\"\n     *      This is used on all state changing functions to pause the contract in\n     *      the event there is an issue that needs to be fixed\n     */\n    modifier requireIsOperational() {\n        require(operational, \"Contract is currently not operational\");\n        _; // All modifiers require an \"_\" which indicates where the function body will be added\n    }\n\n    /**\n     * @dev Modifier that requires the \"ContractOwner\" account to be the function caller\n     */\n    modifier requireContractOwner() {\n        require(msg.sender == contractOwner, \"Caller is not contract owner\");\n        _;\n    }\n\n    /********************************************************************************************/\n    /*                                       UTILITY FUNCTIONS                                  */\n    /********************************************************************************************/\n\n    /**\n     * @dev Get operating status of contract\n     *\n     * @return A bool that is the current operating status\n     */\n    function isOperational() public view returns (bool) {\n        return operational;\n    }\n\n    /**\n     * @dev Sets contract operations on/off\n     *\n     * When operational mode is disabled, all write transactions except for this one will fail\n     */\n    function setOperatingStatus(bool mode) external requireContractOwner {\n        operational = mode;\n    }\n\n    /********************************************************************************************/\n    /*                                     SMART CONTRACT FUNCTIONS                             */\n    /********************************************************************************************/\n\n    /**\n     * @dev Add an airline to the registration queue\n     *      Can only be called from FlightSuretyApp contract\n     *\n     */\n    function registerAirline(\n        string newAirlineName_,\n        address newAirlineAddress_,\n        address airlineCallerAddress_\n    ) external returns (bool) {\n        require(\n            countAirlines < 5,\n            \"Only 4 airlines are allowed to register without voting.\"\n        );\n        require(\n            airlines[airlineCallerAddress_].isRegistered ||\n                msg.sender == contractOwner,\n            \"Only Contract Owner or registered airlines are allowed to register.\"\n        );\n        require(\n            !airlines[newAirlineAddress_].isRegistered,\n            \"Airline has been registered already. Do not allow duplicated.\"\n        );\n\n        Airline storage newAirline = airlines[newAirlineAddress_];\n\n        newAirline.isRegistered = true;\n        newAirline.count = countAirlines;\n        newAirline.updatedTimestamp = block.timestamp;\n        newAirline.airlineAddress = newAirlineAddress_;\n        newAirline.airlineName = newAirlineName_;\n        newAirline.hasVoted = false;\n        newAirline.fund = 0;\n\n        countAirlines += 1;\n        airlinesAddresses.push(newAirlineAddress_);\n        return true;\n    }\n\n    /**\n     * @dev Count votes of current airlines.\n     *      More than 50% of voting enables a new airline\n     *      Can only be called from FlightSuretyApp contract\n     *\n     */\n    function registerAirlineByVoting(\n        string newAirlineName_,\n        address newAirlineAddress_,\n        address airlineVoterAddress_\n    ) external returns (bool) {\n        require(\n            countAirlines >= 4,\n            \"Voting is require after registering 4 airlines.\"\n        );\n        require(\n            countAirlines <= 10,\n            \"No more than 10 airlines could be registered.\"\n        );\n        require(\n            airlines[airlineVoterAddress_].isRegistered,\n            \"Only registered airlines are allowed to vote for a new airline.\"\n        );\n        require(\n            !airlines[airlineVoterAddress_].hasVoted,\n            \"The caller has already voted in this Round.\"\n        );\n        require(\n            !airlines[newAirlineAddress_].isRegistered,\n            \"Airline has been registered already. Do not allow duplicated.\"\n        );\n\n        airlines[airlineVoterAddress_].hasVoted = true;\n        airlineVoters.push(airlineVoterAddress_);\n        if (airlineVoters.length >= countAirlines.div(2)) {\n            airlines[newAirlineAddress_] = Airline({\n                isRegistered: true,\n                count: countAirlines,\n                updatedTimestamp: now,\n                airlineAddress: newAirlineAddress_,\n                airlineName: newAirlineName_,\n                hasVoted: false,\n                fund: 0\n            });\n            airlinesAddresses.push(newAirlineAddress_);\n            countAirlines++;\n            for (uint256 c = 0; c < airlineVoters.length; c++) {\n                airlines[airlineVoters[c]].hasVoted = false;\n            }\n            airlineVoters = new address[](0);\n            return true;\n        }\n        return false;\n    }\n\n    function getAirlineAddresses() external view returns (address[]) {\n        return airlinesAddresses;\n    }\n\n    function getAirlineData(address airlineAddress_)\n        external\n        view\n        returns (\n            bool isRegistered,\n            uint256 count,\n            uint256 updatedTimestamp,\n            address airlineAddress,\n            string airlineName,\n            bool hasVoted,\n            uint256 countAirlines_,\n            uint256 fund\n        )\n    {\n        isRegistered = airlines[airlineAddress_].isRegistered;\n        count = airlines[airlineAddress_].count;\n        updatedTimestamp = airlines[airlineAddress_].updatedTimestamp;\n        airlineAddress = airlines[airlineAddress_].airlineAddress;\n        airlineName = airlines[airlineAddress_].airlineName;\n        hasVoted = airlines[airlineAddress_].hasVoted;\n        countAirlines_ = countAirlines - 1;\n        fund = airlines[airlineAddress_].fund;\n    }\n\n    function registerFundAirline(address airlineAddress_)\n        external\n        returns (uint256)\n    {\n        airlines[airlineAddress_].fund += 10 ether;\n        return airlines[airlineAddress_].fund;\n    }\n\n    function getFlightKey(\n        address airline,\n        string memory flight,\n        uint256 timestamp\n    ) internal pure returns (bytes32) {\n        return keccak256(abi.encodePacked(airline, flight, timestamp));\n    }\n}\n",
  "sourcePath": "/Users/steveleec/Documents/Currently learning/Block Chain Developer - Udacity/FlightSurety/contracts/FlightSuretyData.sol",
  "compiler": {
    "name": "solc",
    "version": "0.4.26+commit.4563c3fc.Emscripten.clang"
  },
  "schemaVersion": "3.0.1",
  "updatedAt": "2021-09-23T15:58:40.442Z",
  "devdoc": {
    "methods": {
      "isOperational()": {
        "details": "Get operating status of contract",
        "return": "A bool that is the current operating status"
      },
      "registerAirline(string,address,address)": {
        "details": "Add an airline to the registration queue     Can only be called from FlightSuretyApp contract     "
      },
      "registerAirlineByVoting(string,address,address)": {
        "details": "Count votes of current airlines.     More than 50% of voting enables a new airline     Can only be called from FlightSuretyApp contract     "
      },
      "setOperatingStatus(bool)": {
        "details": "Sets contract operations on/off     * When operational mode is disabled, all write transactions except for this one will fail"
      }
    }
  },
  "userdoc": {
    "methods": {}
  }
}